{
    "_format": "hh-sol-artifact-1",
    "contractName": "TestNFT",
    "sourceName": "contracts/TestNFT.sol",
    "abi": [
        {
            "inputs": [],
            "stateMutability": "payable",
            "type": "constructor"
        },
        {
            "anonymous": false,
            "inputs": [
                {
                    "indexed": true,
                    "internalType": "address",
                    "name": "owner",
                    "type": "address"
                },
                {
                    "indexed": true,
                    "internalType": "address",
                    "name": "approved",
                    "type": "address"
                },
                {
                    "indexed": true,
                    "internalType": "uint256",
                    "name": "tokenId",
                    "type": "uint256"
                }
            ],
            "name": "Approval",
            "type": "event"
        },
        {
            "anonymous": false,
            "inputs": [
                {
                    "indexed": true,
                    "internalType": "address",
                    "name": "owner",
                    "type": "address"
                },
                {
                    "indexed": true,
                    "internalType": "address",
                    "name": "operator",
                    "type": "address"
                },
                {
                    "indexed": false,
                    "internalType": "bool",
                    "name": "approved",
                    "type": "bool"
                }
            ],
            "name": "ApprovalForAll",
            "type": "event"
        },
        {
            "anonymous": false,
            "inputs": [
                {
                    "indexed": true,
                    "internalType": "address",
                    "name": "previousOwner",
                    "type": "address"
                },
                {
                    "indexed": true,
                    "internalType": "address",
                    "name": "newOwner",
                    "type": "address"
                }
            ],
            "name": "OwnershipTransferred",
            "type": "event"
        },
        {
            "anonymous": false,
            "inputs": [
                {
                    "indexed": true,
                    "internalType": "address",
                    "name": "from",
                    "type": "address"
                },
                {
                    "indexed": true,
                    "internalType": "address",
                    "name": "to",
                    "type": "address"
                },
                {
                    "indexed": true,
                    "internalType": "uint256",
                    "name": "tokenId",
                    "type": "uint256"
                }
            ],
            "name": "Transfer",
            "type": "event"
        },
        {
            "inputs": [
                {
                    "internalType": "address",
                    "name": "to",
                    "type": "address"
                },
                {
                    "internalType": "uint256",
                    "name": "tokenId",
                    "type": "uint256"
                }
            ],
            "name": "approve",
            "outputs": [],
            "stateMutability": "nonpayable",
            "type": "function"
        },
        {
            "inputs": [
                {
                    "internalType": "address",
                    "name": "owner",
                    "type": "address"
                }
            ],
            "name": "balanceOf",
            "outputs": [
                {
                    "internalType": "uint256",
                    "name": "",
                    "type": "uint256"
                }
            ],
            "stateMutability": "view",
            "type": "function"
        },
        {
            "inputs": [
                {
                    "internalType": "uint256",
                    "name": "tokenId",
                    "type": "uint256"
                }
            ],
            "name": "getApproved",
            "outputs": [
                {
                    "internalType": "address",
                    "name": "",
                    "type": "address"
                }
            ],
            "stateMutability": "view",
            "type": "function"
        },
        {
            "inputs": [
                {
                    "internalType": "address",
                    "name": "owner",
                    "type": "address"
                },
                {
                    "internalType": "address",
                    "name": "operator",
                    "type": "address"
                }
            ],
            "name": "isApprovedForAll",
            "outputs": [
                {
                    "internalType": "bool",
                    "name": "",
                    "type": "bool"
                }
            ],
            "stateMutability": "view",
            "type": "function"
        },
        {
            "inputs": [],
            "name": "isPublicMintEnabled",
            "outputs": [
                {
                    "internalType": "bool",
                    "name": "",
                    "type": "bool"
                }
            ],
            "stateMutability": "view",
            "type": "function"
        },
        {
            "inputs": [],
            "name": "maxPerWallet",
            "outputs": [
                {
                    "internalType": "uint8",
                    "name": "",
                    "type": "uint8"
                }
            ],
            "stateMutability": "view",
            "type": "function"
        },
        {
            "inputs": [],
            "name": "maxSupply",
            "outputs": [
                {
                    "internalType": "uint16",
                    "name": "",
                    "type": "uint16"
                }
            ],
            "stateMutability": "view",
            "type": "function"
        },
        {
            "inputs": [
                {
                    "internalType": "uint8",
                    "name": "quantity_",
                    "type": "uint8"
                }
            ],
            "name": "mint",
            "outputs": [],
            "stateMutability": "payable",
            "type": "function"
        },
        {
            "inputs": [],
            "name": "mintPrice",
            "outputs": [
                {
                    "internalType": "uint256",
                    "name": "",
                    "type": "uint256"
                }
            ],
            "stateMutability": "view",
            "type": "function"
        },
        {
            "inputs": [],
            "name": "name",
            "outputs": [
                {
                    "internalType": "string",
                    "name": "",
                    "type": "string"
                }
            ],
            "stateMutability": "view",
            "type": "function"
        },
        {
            "inputs": [],
            "name": "owner",
            "outputs": [
                {
                    "internalType": "address",
                    "name": "",
                    "type": "address"
                }
            ],
            "stateMutability": "view",
            "type": "function"
        },
        {
            "inputs": [
                {
                    "internalType": "uint256",
                    "name": "tokenId",
                    "type": "uint256"
                }
            ],
            "name": "ownerOf",
            "outputs": [
                {
                    "internalType": "address",
                    "name": "",
                    "type": "address"
                }
            ],
            "stateMutability": "view",
            "type": "function"
        },
        {
            "inputs": [],
            "name": "renounceOwnership",
            "outputs": [],
            "stateMutability": "nonpayable",
            "type": "function"
        },
        {
            "inputs": [
                {
                    "internalType": "address",
                    "name": "from",
                    "type": "address"
                },
                {
                    "internalType": "address",
                    "name": "to",
                    "type": "address"
                },
                {
                    "internalType": "uint256",
                    "name": "tokenId",
                    "type": "uint256"
                }
            ],
            "name": "safeTransferFrom",
            "outputs": [],
            "stateMutability": "nonpayable",
            "type": "function"
        },
        {
            "inputs": [
                {
                    "internalType": "address",
                    "name": "from",
                    "type": "address"
                },
                {
                    "internalType": "address",
                    "name": "to",
                    "type": "address"
                },
                {
                    "internalType": "uint256",
                    "name": "tokenId",
                    "type": "uint256"
                },
                {
                    "internalType": "bytes",
                    "name": "_data",
                    "type": "bytes"
                }
            ],
            "name": "safeTransferFrom",
            "outputs": [],
            "stateMutability": "nonpayable",
            "type": "function"
        },
        {
            "inputs": [
                {
                    "internalType": "address",
                    "name": "operator",
                    "type": "address"
                },
                {
                    "internalType": "bool",
                    "name": "approved",
                    "type": "bool"
                }
            ],
            "name": "setApprovalForAll",
            "outputs": [],
            "stateMutability": "nonpayable",
            "type": "function"
        },
        {
            "inputs": [
                {
                    "internalType": "string",
                    "name": "baseTokenUri_",
                    "type": "string"
                }
            ],
            "name": "setBaseTokeUri",
            "outputs": [],
            "stateMutability": "nonpayable",
            "type": "function"
        },
        {
            "inputs": [
                {
                    "internalType": "bool",
                    "name": "isPublicMintEnabled_",
                    "type": "bool"
                }
            ],
            "name": "setIsPublicMintEnabled",
            "outputs": [],
            "stateMutability": "nonpayable",
            "type": "function"
        },
        {
            "inputs": [
                {
                    "internalType": "bytes4",
                    "name": "interfaceId",
                    "type": "bytes4"
                }
            ],
            "name": "supportsInterface",
            "outputs": [
                {
                    "internalType": "bool",
                    "name": "",
                    "type": "bool"
                }
            ],
            "stateMutability": "view",
            "type": "function"
        },
        {
            "inputs": [],
            "name": "symbol",
            "outputs": [
                {
                    "internalType": "string",
                    "name": "",
                    "type": "string"
                }
            ],
            "stateMutability": "view",
            "type": "function"
        },
        {
            "inputs": [
                {
                    "internalType": "uint256",
                    "name": "tokenId",
                    "type": "uint256"
                }
            ],
            "name": "tokenURI",
            "outputs": [
                {
                    "internalType": "string",
                    "name": "",
                    "type": "string"
                }
            ],
            "stateMutability": "view",
            "type": "function"
        },
        {
            "inputs": [],
            "name": "totalSupply",
            "outputs": [
                {
                    "internalType": "uint16",
                    "name": "",
                    "type": "uint16"
                }
            ],
            "stateMutability": "view",
            "type": "function"
        },
        {
            "inputs": [
                {
                    "internalType": "address",
                    "name": "from",
                    "type": "address"
                },
                {
                    "internalType": "address",
                    "name": "to",
                    "type": "address"
                },
                {
                    "internalType": "uint256",
                    "name": "tokenId",
                    "type": "uint256"
                }
            ],
            "name": "transferFrom",
            "outputs": [],
            "stateMutability": "nonpayable",
            "type": "function"
        },
        {
            "inputs": [
                {
                    "internalType": "address",
                    "name": "newOwner",
                    "type": "address"
                }
            ],
            "name": "transferOwnership",
            "outputs": [],
            "stateMutability": "nonpayable",
            "type": "function"
        },
        {
            "inputs": [
                {
                    "internalType": "address",
                    "name": "",
                    "type": "address"
                }
            ],
            "name": "walletMints",
            "outputs": [
                {
                    "internalType": "uint256",
                    "name": "",
                    "type": "uint256"
                }
            ],
            "stateMutability": "view",
            "type": "function"
        },
        {
            "inputs": [],
            "name": "withdraw",
            "outputs": [],
            "stateMutability": "nonpayable",
            "type": "function"
        },
        {
            "inputs": [],
            "name": "withdrawWallet",
            "outputs": [
                {
                    "internalType": "address payable",
                    "name": "",
                    "type": "address"
                }
            ],
            "stateMutability": "view",
            "type": "function"
        }
    ],
    "bytecode": "0x60806040526040518060400160405280600481526020017f54657374000000000000000000000000000000000000000000000000000000008152506040518060400160405280600281526020017f54530000000000000000000000000000000000000000000000000000000000008152508160009080519060200190620000889291906200023f565b508060019080519060200190620000a19291906200023f565b505050620000c4620000b86200017160201b60201c565b6200017960201b60201c565b662386f26fc100006007819055506000600860006101000a81548161ffff021916908361ffff1602179055506000600860026101000a81548161ffff021916908361ffff1602179055506002600860046101000a81548160ff021916908360ff16021790555033600a60006101000a81548173ffffffffffffffffffffffffffffffffffffffff021916908373ffffffffffffffffffffffffffffffffffffffff16021790555062000354565b600033905090565b6000600660009054906101000a900473ffffffffffffffffffffffffffffffffffffffff16905081600660006101000a81548173ffffffffffffffffffffffffffffffffffffffff021916908373ffffffffffffffffffffffffffffffffffffffff1602179055508173ffffffffffffffffffffffffffffffffffffffff168173ffffffffffffffffffffffffffffffffffffffff167f8be0079c531659141344cd1fd0a4f28419497f9722a3daafe3b4186f6b6457e060405160405180910390a35050565b8280546200024d90620002ef565b90600052602060002090601f016020900481019282620002715760008555620002bd565b82601f106200028c57805160ff1916838001178555620002bd565b82800160010185558215620002bd579182015b82811115620002bc5782518255916020019190600101906200029f565b5b509050620002cc9190620002d0565b5090565b5b80821115620002eb576000816000905550600101620002d1565b5090565b600060028204905060018216806200030857607f821691505b602082108114156200031f576200031e62000325565b5b50919050565b7f4e487b7100000000000000000000000000000000000000000000000000000000600052602260045260246000fd5b6138d980620003646000396000f3fe60806040526004361061019c5760003560e01c80636817c76c116100ec578063a22cb4651161008a578063d5abeb0111610064578063d5abeb0114610593578063e985e9c5146105be578063f0293fd3146105fb578063f2fde38b146106385761019c565b8063a22cb46514610504578063b88d4fde1461052d578063c87b56dd146105565761019c565b8063715018a6116100c6578063715018a61461046c57806385d178f4146104835780638da5cb5b146104ae57806395d89b41146104d95761019c565b80636817c76c146103e85780636ecd23061461041357806370a082311461042f5761019c565b80632373ac221161015957806342842e0e1161013357806342842e0e1461032e578063453c231014610357578063615231e9146103825780636352211e146103ab5761019c565b80632373ac22146102c557806323b872dd146102ee5780633ccfd60b146103175761019c565b80630116bc2d146101a157806301ffc9a7146101cc57806306fdde0314610209578063081812fc14610234578063095ea7b31461027157806318160ddd1461029a575b600080fd5b3480156101ad57600080fd5b506101b6610661565b6040516101c39190612b31565b60405180910390f35b3480156101d857600080fd5b506101f360048036038101906101ee919061258e565b610674565b6040516102009190612b31565b60405180910390f35b34801561021557600080fd5b5061021e610756565b60405161022b9190612b4c565b60405180910390f35b34801561024057600080fd5b5061025b60048036038101906102569190612625565b6107e8565b6040516102689190612aaf565b60405180910390f35b34801561027d57600080fd5b5061029860048036038101906102939190612529565b61086d565b005b3480156102a657600080fd5b506102af610985565b6040516102bc9190612e0e565b60405180910390f35b3480156102d157600080fd5b506102ec60048036038101906102e79190612565565b610999565b005b3480156102fa57600080fd5b5061031560048036038101906103109190612423565b610a32565b005b34801561032357600080fd5b5061032c610a92565b005b34801561033a57600080fd5b5061035560048036038101906103509190612423565b610bdf565b005b34801561036357600080fd5b5061036c610bff565b6040516103799190612e44565b60405180910390f35b34801561038e57600080fd5b506103a960048036038101906103a491906125e0565b610c12565b005b3480156103b757600080fd5b506103d260048036038101906103cd9190612625565b610ca4565b6040516103df9190612aaf565b60405180910390f35b3480156103f457600080fd5b506103fd610d56565b60405161040a9190612e29565b60405180910390f35b61042d6004803603810190610428919061264e565b610d5c565b005b34801561043b57600080fd5b50610456600480360381019061045191906123be565b610fac565b6040516104639190612e29565b60405180910390f35b34801561047857600080fd5b50610481611064565b005b34801561048f57600080fd5b506104986110ec565b6040516104a59190612aca565b60405180910390f35b3480156104ba57600080fd5b506104c3611112565b6040516104d09190612aaf565b60405180910390f35b3480156104e557600080fd5b506104ee61113c565b6040516104fb9190612b4c565b60405180910390f35b34801561051057600080fd5b5061052b600480360381019061052691906124ed565b6111ce565b005b34801561053957600080fd5b50610554600480360381019061054f9190612472565b6111e4565b005b34801561056257600080fd5b5061057d60048036038101906105789190612625565b611246565b60405161058a9190612b4c565b60405180910390f35b34801561059f57600080fd5b506105a86112ed565b6040516105b59190612e0e565b60405180910390f35b3480156105ca57600080fd5b506105e560048036038101906105e091906123e7565b611301565b6040516105f29190612b31565b60405180910390f35b34801561060757600080fd5b50610622600480360381019061061d91906123be565b611395565b60405161062f9190612e29565b60405180910390f35b34801561064457600080fd5b5061065f600480360381019061065a91906123be565b6113ad565b005b600860059054906101000a900460ff1681565b60007f80ac58cd000000000000000000000000000000000000000000000000000000007bffffffffffffffffffffffffffffffffffffffffffffffffffffffff1916827bffffffffffffffffffffffffffffffffffffffffffffffffffffffff1916148061073f57507f5b5e139f000000000000000000000000000000000000000000000000000000007bffffffffffffffffffffffffffffffffffffffffffffffffffffffff1916827bffffffffffffffffffffffffffffffffffffffffffffffffffffffff1916145b8061074f575061074e826114a5565b5b9050919050565b60606000805461076590613133565b80601f016020809104026020016040519081016040528092919081815260200182805461079190613133565b80156107de5780601f106107b3576101008083540402835291602001916107de565b820191906000526020600020905b8154815290600101906020018083116107c157829003601f168201915b5050505050905090565b60006107f38261150f565b610832576040517f08c379a000000000000000000000000000000000000000000000000000000000815260040161082990612d2e565b60405180910390fd5b6004600083815260200190815260200160002060009054906101000a900473ffffffffffffffffffffffffffffffffffffffff169050919050565b600061087882610ca4565b90508073ffffffffffffffffffffffffffffffffffffffff168373ffffffffffffffffffffffffffffffffffffffff1614156108e9576040517f08c379a00000000000000000000000000000000000000000000000000000000081526004016108e090612dae565b60405180910390fd5b8073ffffffffffffffffffffffffffffffffffffffff1661090861157b565b73ffffffffffffffffffffffffffffffffffffffff16148061093757506109368161093161157b565b611301565b5b610976576040517f08c379a000000000000000000000000000000000000000000000000000000000815260040161096d90612cae565b60405180910390fd5b6109808383611583565b505050565b600860009054906101000a900461ffff1681565b6109a161157b565b73ffffffffffffffffffffffffffffffffffffffff166109bf611112565b73ffffffffffffffffffffffffffffffffffffffff1614610a15576040517f08c379a0000000000000000000000000000000000000000000000000000000008152600401610a0c90612d6e565b60405180910390fd5b80600860056101000a81548160ff02191690831515021790555050565b610a43610a3d61157b565b8261163c565b610a82576040517f08c379a0000000000000000000000000000000000000000000000000000000008152600401610a7990612dce565b60405180910390fd5b610a8d83838361171a565b505050565b610a9a61157b565b73ffffffffffffffffffffffffffffffffffffffff16610ab8611112565b73ffffffffffffffffffffffffffffffffffffffff1614610b0e576040517f08c379a0000000000000000000000000000000000000000000000000000000008152600401610b0590612d6e565b60405180910390fd5b6000600a60009054906101000a900473ffffffffffffffffffffffffffffffffffffffff1673ffffffffffffffffffffffffffffffffffffffff1647604051610b5690612a9a565b60006040518083038185875af1925050503d8060008114610b93576040519150601f19603f3d011682016040523d82523d6000602084013e610b98565b606091505b5050905080610bdc576040517f08c379a0000000000000000000000000000000000000000000000000000000008152600401610bd390612dee565b60405180910390fd5b50565b610bfa838383604051806020016040528060008152506111e4565b505050565b600860049054906101000a900460ff1681565b610c1a61157b565b73ffffffffffffffffffffffffffffffffffffffff16610c38611112565b73ffffffffffffffffffffffffffffffffffffffff1614610c8e576040517f08c379a0000000000000000000000000000000000000000000000000000000008152600401610c8590612d6e565b60405180910390fd5b818160099190610c9f9291906121eb565b505050565b6000806002600084815260200190815260200160002060009054906101000a900473ffffffffffffffffffffffffffffffffffffffff169050600073ffffffffffffffffffffffffffffffffffffffff168173ffffffffffffffffffffffffffffffffffffffff161415610d4d576040517f08c379a0000000000000000000000000000000000000000000000000000000008152600401610d4490612cee565b60405180910390fd5b80915050919050565b60075481565b600860059054906101000a900460ff16610dab576040517f08c379a0000000000000000000000000000000000000000000000000000000008152600401610da290612bae565b60405180910390fd5b6007548160ff16610dbc9190612fc2565b3414610dfd576040517f08c379a0000000000000000000000000000000000000000000000000000000008152600401610df490612b6e565b60405180910390fd5b600860029054906101000a900461ffff1661ffff168160ff16600860009054906101000a900461ffff16610e319190612f03565b61ffff161115610e76576040517f08c379a0000000000000000000000000000000000000000000000000000000008152600401610e6d90612c8e565b60405180910390fd5b600860049054906101000a900460ff1660ff168160ff16600b60003373ffffffffffffffffffffffffffffffffffffffff1673ffffffffffffffffffffffffffffffffffffffff16815260200190815260200160002054610ed79190612f3b565b1115610f18576040517f08c379a0000000000000000000000000000000000000000000000000000000008152600401610f0f90612d4e565b60405180910390fd5b60005b8160ff168161ffff161015610fa85760006001600860009054906101000a900461ffff16610f499190612f03565b61ffff1690506008600081819054906101000a900461ffff1680929190610f6f90613196565b91906101000a81548161ffff021916908361ffff16021790555050610f943382611981565b508080610fa090613196565b915050610f1b565b5050565b60008073ffffffffffffffffffffffffffffffffffffffff168273ffffffffffffffffffffffffffffffffffffffff16141561101d576040517f08c379a000000000000000000000000000000000000000000000000000000000815260040161101490612cce565b60405180910390fd5b600360008373ffffffffffffffffffffffffffffffffffffffff1673ffffffffffffffffffffffffffffffffffffffff168152602001908152602001600020549050919050565b61106c61157b565b73ffffffffffffffffffffffffffffffffffffffff1661108a611112565b73ffffffffffffffffffffffffffffffffffffffff16146110e0576040517f08c379a00000000000000000000000000000000000000000000000000000000081526004016110d790612d6e565b60405180910390fd5b6110ea600061199f565b565b600a60009054906101000a900473ffffffffffffffffffffffffffffffffffffffff1681565b6000600660009054906101000a900473ffffffffffffffffffffffffffffffffffffffff16905090565b60606001805461114b90613133565b80601f016020809104026020016040519081016040528092919081815260200182805461117790613133565b80156111c45780601f10611199576101008083540402835291602001916111c4565b820191906000526020600020905b8154815290600101906020018083116111a757829003601f168201915b5050505050905090565b6111e06111d961157b565b8383611a65565b5050565b6111f56111ef61157b565b8361163c565b611234576040517f08c379a000000000000000000000000000000000000000000000000000000000815260040161122b90612dce565b60405180910390fd5b61124084848484611bd2565b50505050565b60606112518261150f565b611290576040517f08c379a000000000000000000000000000000000000000000000000000000000815260040161128790612d8e565b60405180910390fd5b600061129a611c2e565b905060008151116112ba57604051806020016040528060008152506112e5565b806112c484611c45565b6040516020016112d5929190612a76565b6040516020818303038152906040525b915050919050565b600860029054906101000a900461ffff1681565b6000600560008473ffffffffffffffffffffffffffffffffffffffff1673ffffffffffffffffffffffffffffffffffffffff16815260200190815260200160002060008373ffffffffffffffffffffffffffffffffffffffff1673ffffffffffffffffffffffffffffffffffffffff16815260200190815260200160002060009054906101000a900460ff16905092915050565b600b6020528060005260406000206000915090505481565b6113b561157b565b73ffffffffffffffffffffffffffffffffffffffff166113d3611112565b73ffffffffffffffffffffffffffffffffffffffff1614611429576040517f08c379a000000000000000000000000000000000000000000000000000000000815260040161142090612d6e565b60405180910390fd5b600073ffffffffffffffffffffffffffffffffffffffff168173ffffffffffffffffffffffffffffffffffffffff161415611499576040517f08c379a000000000000000000000000000000000000000000000000000000000815260040161149090612bce565b60405180910390fd5b6114a28161199f565b50565b60007f01ffc9a7000000000000000000000000000000000000000000000000000000007bffffffffffffffffffffffffffffffffffffffffffffffffffffffff1916827bffffffffffffffffffffffffffffffffffffffffffffffffffffffff1916149050919050565b60008073ffffffffffffffffffffffffffffffffffffffff166002600084815260200190815260200160002060009054906101000a900473ffffffffffffffffffffffffffffffffffffffff1673ffffffffffffffffffffffffffffffffffffffff1614159050919050565b600033905090565b816004600083815260200190815260200160002060006101000a81548173ffffffffffffffffffffffffffffffffffffffff021916908373ffffffffffffffffffffffffffffffffffffffff160217905550808273ffffffffffffffffffffffffffffffffffffffff166115f683610ca4565b73ffffffffffffffffffffffffffffffffffffffff167f8c5be1e5ebec7d5bd14f71427d1e84f3dd0314c0f7b2291e5b200ac8c7c3b92560405160405180910390a45050565b60006116478261150f565b611686576040517f08c379a000000000000000000000000000000000000000000000000000000000815260040161167d90612c6e565b60405180910390fd5b600061169183610ca4565b90508073ffffffffffffffffffffffffffffffffffffffff168473ffffffffffffffffffffffffffffffffffffffff1614806116d357506116d28185611301565b5b8061171157508373ffffffffffffffffffffffffffffffffffffffff166116f9846107e8565b73ffffffffffffffffffffffffffffffffffffffff16145b91505092915050565b8273ffffffffffffffffffffffffffffffffffffffff1661173a82610ca4565b73ffffffffffffffffffffffffffffffffffffffff1614611790576040517f08c379a000000000000000000000000000000000000000000000000000000000815260040161178790612bee565b60405180910390fd5b600073ffffffffffffffffffffffffffffffffffffffff168273ffffffffffffffffffffffffffffffffffffffff161415611800576040517f08c379a00000000000000000000000000000000000000000000000000000000081526004016117f790612c2e565b60405180910390fd5b61180b838383611df2565b611816600082611583565b6001600360008573ffffffffffffffffffffffffffffffffffffffff1673ffffffffffffffffffffffffffffffffffffffff1681526020019081526020016000206000828254611866919061301c565b925050819055506001600360008473ffffffffffffffffffffffffffffffffffffffff1673ffffffffffffffffffffffffffffffffffffffff16815260200190815260200160002060008282546118bd9190612f3b565b92505081905550816002600083815260200190815260200160002060006101000a81548173ffffffffffffffffffffffffffffffffffffffff021916908373ffffffffffffffffffffffffffffffffffffffff160217905550808273ffffffffffffffffffffffffffffffffffffffff168473ffffffffffffffffffffffffffffffffffffffff167fddf252ad1be2c89b69c2b068fc378daa952ba7f163c4a11628f55a4df523b3ef60405160405180910390a461197c838383611df7565b505050565b61199b828260405180602001604052806000815250611dfc565b5050565b6000600660009054906101000a900473ffffffffffffffffffffffffffffffffffffffff16905081600660006101000a81548173ffffffffffffffffffffffffffffffffffffffff021916908373ffffffffffffffffffffffffffffffffffffffff1602179055508173ffffffffffffffffffffffffffffffffffffffff168173ffffffffffffffffffffffffffffffffffffffff167f8be0079c531659141344cd1fd0a4f28419497f9722a3daafe3b4186f6b6457e060405160405180910390a35050565b8173ffffffffffffffffffffffffffffffffffffffff168373ffffffffffffffffffffffffffffffffffffffff161415611ad4576040517f08c379a0000000000000000000000000000000000000000000000000000000008152600401611acb90612c4e565b60405180910390fd5b80600560008573ffffffffffffffffffffffffffffffffffffffff1673ffffffffffffffffffffffffffffffffffffffff16815260200190815260200160002060008473ffffffffffffffffffffffffffffffffffffffff1673ffffffffffffffffffffffffffffffffffffffff16815260200190815260200160002060006101000a81548160ff0219169083151502179055508173ffffffffffffffffffffffffffffffffffffffff168373ffffffffffffffffffffffffffffffffffffffff167f17307eab39ab6107e8899845ad3d59bd9653f200f220920489ca2b5937696c3183604051611bc59190612b31565b60405180910390a3505050565b611bdd84848461171a565b611be984848484611e57565b611c28576040517f08c379a0000000000000000000000000000000000000000000000000000000008152600401611c1f90612b8e565b60405180910390fd5b50505050565b606060405180602001604052806000815250905090565b60606000821415611c8d576040518060400160405280600181526020017f30000000000000000000000000000000000000000000000000000000000000008152509050611ded565b600082905060005b60008214611cbf578080611ca8906131c1565b915050600a82611cb89190612f91565b9150611c95565b60008167ffffffffffffffff811115611d01577f4e487b7100000000000000000000000000000000000000000000000000000000600052604160045260246000fd5b6040519080825280601f01601f191660200182016040528015611d335781602001600182028036833780820191505090505b5090505b60008514611de657600182611d4c919061301c565b9150600a85611d5b919061320a565b6030611d679190612f3b565b60f81b818381518110611da3577f4e487b7100000000000000000000000000000000000000000000000000000000600052603260045260246000fd5b60200101907effffffffffffffffffffffffffffffffffffffffffffffffffffffffffffff1916908160001a905350600a85611ddf9190612f91565b9450611d37565b8093505050505b919050565b505050565b505050565b611e068383611fee565b611e136000848484611e57565b611e52576040517f08c379a0000000000000000000000000000000000000000000000000000000008152600401611e4990612b8e565b60405180910390fd5b505050565b6000611e788473ffffffffffffffffffffffffffffffffffffffff166121c8565b15611fe1578373ffffffffffffffffffffffffffffffffffffffff1663150b7a02611ea161157b565b8786866040518563ffffffff1660e01b8152600401611ec39493929190612ae5565b602060405180830381600087803b158015611edd57600080fd5b505af1925050508015611f0e57506040513d601f19601f82011682018060405250810190611f0b91906125b7565b60015b611f91573d8060008114611f3e576040519150601f19603f3d011682016040523d82523d6000602084013e611f43565b606091505b50600081511415611f89576040517f08c379a0000000000000000000000000000000000000000000000000000000008152600401611f8090612b8e565b60405180910390fd5b805181602001fd5b63150b7a0260e01b7bffffffffffffffffffffffffffffffffffffffffffffffffffffffff1916817bffffffffffffffffffffffffffffffffffffffffffffffffffffffff191614915050611fe6565b600190505b949350505050565b600073ffffffffffffffffffffffffffffffffffffffff168273ffffffffffffffffffffffffffffffffffffffff16141561205e576040517f08c379a000000000000000000000000000000000000000000000000000000000815260040161205590612d0e565b60405180910390fd5b6120678161150f565b156120a7576040517f08c379a000000000000000000000000000000000000000000000000000000000815260040161209e90612c0e565b60405180910390fd5b6120b360008383611df2565b6001600360008473ffffffffffffffffffffffffffffffffffffffff1673ffffffffffffffffffffffffffffffffffffffff16815260200190815260200160002060008282546121039190612f3b565b92505081905550816002600083815260200190815260200160002060006101000a81548173ffffffffffffffffffffffffffffffffffffffff021916908373ffffffffffffffffffffffffffffffffffffffff160217905550808273ffffffffffffffffffffffffffffffffffffffff16600073ffffffffffffffffffffffffffffffffffffffff167fddf252ad1be2c89b69c2b068fc378daa952ba7f163c4a11628f55a4df523b3ef60405160405180910390a46121c460008383611df7565b5050565b6000808273ffffffffffffffffffffffffffffffffffffffff163b119050919050565b8280546121f790613133565b90600052602060002090601f0160209004810192826122195760008555612260565b82601f1061223257803560ff1916838001178555612260565b82800160010185558215612260579182015b8281111561225f578235825591602001919060010190612244565b5b50905061226d9190612271565b5090565b5b8082111561228a576000816000905550600101612272565b5090565b60006122a161229c84612e84565b612e5f565b9050828152602081018484840111156122b957600080fd5b6122c48482856130f1565b509392505050565b6000813590506122db81613830565b92915050565b6000813590506122f081613847565b92915050565b6000813590506123058161385e565b92915050565b60008151905061231a8161385e565b92915050565b600082601f83011261233157600080fd5b813561234184826020860161228e565b91505092915050565b60008083601f84011261235c57600080fd5b8235905067ffffffffffffffff81111561237557600080fd5b60208301915083600182028301111561238d57600080fd5b9250929050565b6000813590506123a381613875565b92915050565b6000813590506123b88161388c565b92915050565b6000602082840312156123d057600080fd5b60006123de848285016122cc565b91505092915050565b600080604083850312156123fa57600080fd5b6000612408858286016122cc565b9250506020612419858286016122cc565b9150509250929050565b60008060006060848603121561243857600080fd5b6000612446868287016122cc565b9350506020612457868287016122cc565b925050604061246886828701612394565b9150509250925092565b6000806000806080858703121561248857600080fd5b6000612496878288016122cc565b94505060206124a7878288016122cc565b93505060406124b887828801612394565b925050606085013567ffffffffffffffff8111156124d557600080fd5b6124e187828801612320565b91505092959194509250565b6000806040838503121561250057600080fd5b600061250e858286016122cc565b925050602061251f858286016122e1565b9150509250929050565b6000806040838503121561253c57600080fd5b600061254a858286016122cc565b925050602061255b85828601612394565b9150509250929050565b60006020828403121561257757600080fd5b6000612585848285016122e1565b91505092915050565b6000602082840312156125a057600080fd5b60006125ae848285016122f6565b91505092915050565b6000602082840312156125c957600080fd5b60006125d78482850161230b565b91505092915050565b600080602083850312156125f357600080fd5b600083013567ffffffffffffffff81111561260d57600080fd5b6126198582860161234a565b92509250509250929050565b60006020828403121561263757600080fd5b600061264584828501612394565b91505092915050565b60006020828403121561266057600080fd5b600061266e848285016123a9565b91505092915050565b61268081613062565b82525050565b61268f81613050565b82525050565b61269e81613074565b82525050565b60006126af82612eb5565b6126b98185612ecb565b93506126c9818560208601613100565b6126d2816132f7565b840191505092915050565b60006126e882612ec0565b6126f28185612ee7565b9350612702818560208601613100565b61270b816132f7565b840191505092915050565b600061272182612ec0565b61272b8185612ef8565b935061273b818560208601613100565b80840191505092915050565b6000612754601083612ee7565b915061275f82613308565b602082019050919050565b6000612777603283612ee7565b915061278282613331565b604082019050919050565b600061279a601383612ee7565b91506127a582613380565b602082019050919050565b60006127bd602683612ee7565b91506127c8826133a9565b604082019050919050565b60006127e0602583612ee7565b91506127eb826133f8565b604082019050919050565b6000612803601c83612ee7565b915061280e82613447565b602082019050919050565b6000612826602483612ee7565b915061283182613470565b604082019050919050565b6000612849601983612ee7565b9150612854826134bf565b602082019050919050565b600061286c602c83612ee7565b9150612877826134e8565b604082019050919050565b600061288f600883612ee7565b915061289a82613537565b602082019050919050565b60006128b2603883612ee7565b91506128bd82613560565b604082019050919050565b60006128d5602a83612ee7565b91506128e0826135af565b604082019050919050565b60006128f8602983612ee7565b9150612903826135fe565b604082019050919050565b600061291b602083612ee7565b91506129268261364d565b602082019050919050565b600061293e602c83612ee7565b915061294982613676565b604082019050919050565b6000612961601183612ee7565b915061296c826136c5565b602082019050919050565b6000612984602083612ee7565b915061298f826136ee565b602082019050919050565b60006129a7602f83612ee7565b91506129b282613717565b604082019050919050565b60006129ca602183612ee7565b91506129d582613766565b604082019050919050565b60006129ed600083612edc565b91506129f8826137b5565b600082019050919050565b6000612a10603183612ee7565b9150612a1b826137b8565b604082019050919050565b6000612a33600f83612ee7565b9150612a3e82613807565b602082019050919050565b612a52816130ac565b82525050565b612a61816130da565b82525050565b612a70816130e4565b82525050565b6000612a828285612716565b9150612a8e8284612716565b91508190509392505050565b6000612aa5826129e0565b9150819050919050565b6000602082019050612ac46000830184612686565b92915050565b6000602082019050612adf6000830184612677565b92915050565b6000608082019050612afa6000830187612686565b612b076020830186612686565b612b146040830185612a58565b8181036060830152612b2681846126a4565b905095945050505050565b6000602082019050612b466000830184612695565b92915050565b60006020820190508181036000830152612b6681846126dd565b905092915050565b60006020820190508181036000830152612b8781612747565b9050919050565b60006020820190508181036000830152612ba78161276a565b9050919050565b60006020820190508181036000830152612bc78161278d565b9050919050565b60006020820190508181036000830152612be7816127b0565b9050919050565b60006020820190508181036000830152612c07816127d3565b9050919050565b60006020820190508181036000830152612c27816127f6565b9050919050565b60006020820190508181036000830152612c4781612819565b9050919050565b60006020820190508181036000830152612c678161283c565b9050919050565b60006020820190508181036000830152612c878161285f565b9050919050565b60006020820190508181036000830152612ca781612882565b9050919050565b60006020820190508181036000830152612cc7816128a5565b9050919050565b60006020820190508181036000830152612ce7816128c8565b9050919050565b60006020820190508181036000830152612d07816128eb565b9050919050565b60006020820190508181036000830152612d278161290e565b9050919050565b60006020820190508181036000830152612d4781612931565b9050919050565b60006020820190508181036000830152612d6781612954565b9050919050565b60006020820190508181036000830152612d8781612977565b9050919050565b60006020820190508181036000830152612da78161299a565b9050919050565b60006020820190508181036000830152612dc7816129bd565b9050919050565b60006020820190508181036000830152612de781612a03565b9050919050565b60006020820190508181036000830152612e0781612a26565b9050919050565b6000602082019050612e236000830184612a49565b92915050565b6000602082019050612e3e6000830184612a58565b92915050565b6000602082019050612e596000830184612a67565b92915050565b6000612e69612e7a565b9050612e758282613165565b919050565b6000604051905090565b600067ffffffffffffffff821115612e9f57612e9e6132c8565b5b612ea8826132f7565b9050602081019050919050565b600081519050919050565b600081519050919050565b600082825260208201905092915050565b600081905092915050565b600082825260208201905092915050565b600081905092915050565b6000612f0e826130ac565b9150612f19836130ac565b92508261ffff03821115612f3057612f2f61323b565b5b828201905092915050565b6000612f46826130da565b9150612f51836130da565b9250827fffffffffffffffffffffffffffffffffffffffffffffffffffffffffffffffff03821115612f8657612f8561323b565b5b828201905092915050565b6000612f9c826130da565b9150612fa7836130da565b925082612fb757612fb661326a565b5b828204905092915050565b6000612fcd826130da565b9150612fd8836130da565b9250817fffffffffffffffffffffffffffffffffffffffffffffffffffffffffffffffff04831182151516156130115761301061323b565b5b828202905092915050565b6000613027826130da565b9150613032836130da565b9250828210156130455761304461323b565b5b828203905092915050565b600061305b826130ba565b9050919050565b600061306d826130ba565b9050919050565b60008115159050919050565b60007fffffffff0000000000000000000000000000000000000000000000000000000082169050919050565b600061ffff82169050919050565b600073ffffffffffffffffffffffffffffffffffffffff82169050919050565b6000819050919050565b600060ff82169050919050565b82818337600083830152505050565b60005b8381101561311e578082015181840152602081019050613103565b8381111561312d576000848401525b50505050565b6000600282049050600182168061314b57607f821691505b6020821081141561315f5761315e613299565b5b50919050565b61316e826132f7565b810181811067ffffffffffffffff8211171561318d5761318c6132c8565b5b80604052505050565b60006131a1826130ac565b915061ffff8214156131b6576131b561323b565b5b600182019050919050565b60006131cc826130da565b91507fffffffffffffffffffffffffffffffffffffffffffffffffffffffffffffffff8214156131ff576131fe61323b565b5b600182019050919050565b6000613215826130da565b9150613220836130da565b9250826132305761322f61326a565b5b828206905092915050565b7f4e487b7100000000000000000000000000000000000000000000000000000000600052601160045260246000fd5b7f4e487b7100000000000000000000000000000000000000000000000000000000600052601260045260246000fd5b7f4e487b7100000000000000000000000000000000000000000000000000000000600052602260045260246000fd5b7f4e487b7100000000000000000000000000000000000000000000000000000000600052604160045260246000fd5b6000601f19601f8301169050919050565b7f77726f6e67206d696e742076616c756500000000000000000000000000000000600082015250565b7f4552433732313a207472616e7366657220746f206e6f6e20455243373231526560008201527f63656976657220696d706c656d656e7465720000000000000000000000000000602082015250565b7f6d696e74696e67206e6f7420656e61626c656400000000000000000000000000600082015250565b7f4f776e61626c653a206e6577206f776e657220697320746865207a65726f206160008201527f6464726573730000000000000000000000000000000000000000000000000000602082015250565b7f4552433732313a207472616e736665722066726f6d20696e636f72726563742060008201527f6f776e6572000000000000000000000000000000000000000000000000000000602082015250565b7f4552433732313a20746f6b656e20616c7265616479206d696e74656400000000600082015250565b7f4552433732313a207472616e7366657220746f20746865207a65726f2061646460008201527f7265737300000000000000000000000000000000000000000000000000000000602082015250565b7f4552433732313a20617070726f766520746f2063616c6c657200000000000000600082015250565b7f4552433732313a206f70657261746f7220717565727920666f72206e6f6e657860008201527f697374656e7420746f6b656e0000000000000000000000000000000000000000602082015250565b7f736f6c64206f7574000000000000000000000000000000000000000000000000600082015250565b7f4552433732313a20617070726f76652063616c6c6572206973206e6f74206f7760008201527f6e6572206e6f7220617070726f76656420666f7220616c6c0000000000000000602082015250565b7f4552433732313a2062616c616e636520717565727920666f7220746865207a6560008201527f726f206164647265737300000000000000000000000000000000000000000000602082015250565b7f4552433732313a206f776e657220717565727920666f72206e6f6e657869737460008201527f656e7420746f6b656e0000000000000000000000000000000000000000000000602082015250565b7f4552433732313a206d696e7420746f20746865207a65726f2061646472657373600082015250565b7f4552433732313a20617070726f76656420717565727920666f72206e6f6e657860008201527f697374656e7420746f6b656e0000000000000000000000000000000000000000602082015250565b7f657863656564206d61782077616c6c6574000000000000000000000000000000600082015250565b7f4f776e61626c653a2063616c6c6572206973206e6f7420746865206f776e6572600082015250565b7f4552433732314d657461646174613a2055524920717565727920666f72206e6f60008201527f6e6578697374656e7420746f6b656e0000000000000000000000000000000000602082015250565b7f4552433732313a20617070726f76616c20746f2063757272656e74206f776e6560008201527f7200000000000000000000000000000000000000000000000000000000000000602082015250565b50565b7f4552433732313a207472616e736665722063616c6c6572206973206e6f74206f60008201527f776e6572206e6f7220617070726f766564000000000000000000000000000000602082015250565b7f7769746864726177206661696c65640000000000000000000000000000000000600082015250565b61383981613050565b811461384457600080fd5b50565b61385081613074565b811461385b57600080fd5b50565b61386781613080565b811461387257600080fd5b50565b61387e816130da565b811461388957600080fd5b50565b613895816130e4565b81146138a057600080fd5b5056fea26469706673582212206647638ff74319bc6441759e8362163bc4ee8dc2d0d603836083b4586334b6f664736f6c63430008040033",
    "linkReferences": {},
    "deployedLinkReferences": {}
}